:020000040010EA
:10000000C0100020ED011000F5011000F7011000F4
:1000100000000000000000000000000000000000E0
:1000200000000000000000000000000007021000B7
:100030000000000000000000090210000B02100088
:100040000D0210000D0210000D0210000D02100034
:100050000D0210000D0210000D0210000D02100024
:100060000D0210000D0210000D0210000D02100014
:100070000D0210000D0210000D0210000D02100004
:100080000D0210000D0210000D0210000D021000F4
:100090000D0210000D0210000D0210000D021000E4
:1000A0000D0210000D0210000D0210000D021000D4
:1000B0000D0210000D0210000D0210000D021000C4
:1000C0000D0210000D0210000D0210000D021000B4
:1000D000B50910000D0210000D0210000D021000F5
:1000E0000D0210000D0210000D0210000D02100094
:1000F0000D0210000D0210000D0210000D02100084
:100100000D0210000D0210000D0210000D02100073
:100110000D0210000D0210000D0210000D02100063
:100120000D0210000D0210000D0210000D02100053
:100130000D0210000D0210000D0210000D02100043
:100140000D0210000D0210000D0210000D02100033
:100150000D0210000D0210000D0210000D02100023
:100160000D0210000D0210000D0210000D02100013
:100170000D0210000D0210000D0210000D02100003
:100180000D0210000D0210000D0210000D021000F3
:100190000D0210000D0210000D0210000D021000E3
:1001A0000D0210000D0210000D0210000D021000D3
:1001B0000D0210000D0210000D0210000D021000C3
:1001C0000D0210000D0210000D0210000D021000B3
:1001D0000D0210000D0210000348854600F03AF8A9
:1001E00000480047010C1000C01000200C48804758
:1001F0000C480047FEE77046EFF30881EFF30982F1
:10020000094B98470047FEE7FEE7FEE7FEE70000E0
:10021000ABBE064B7446984720477046F047000037
:10022000A5091000D9011000F907100053081000AB
:10023000D2B201E00270401C491EFBD2704700227E
:10024000F6E710B513460A4604461946FFF7F0FFD5
:10025000204610BD1CB5094800900948019005468C
:100260000126009C05E0E36807CC33430C3C98472B
:100270001034AC42F7D3FFF7B3FF0000540D100069
:10028000740D100084B0039002916946002008802C
:100290000190FFE70198029988420CDAFFE7039882
:1002A0000199415C0098401869460880FFE7019871
:1002B000401C0190EEE76846008804B070470000DB
:1002C00087B00590049105980390FFE704980028F3
:1002D0005BD0FFE70498800C50B1FFE703988003E0
:1002E00030B9FFE72320029001208004019015E03F
:1002F0000498400B58B1FFE703A80088C00430B948
:10030000FFE72520029042F20000019005E0222044
:10031000029040F600000190FFE7FFE70298854950
:100320000860039884490860844901200860BFF38D
:100330006F8F7E48006880080090FFE77F48006864
:10034000C00750B1FFE70098401E009020B9FFE7BA
:100350000020C04306901BE0F0E7494800684006D3
:10036000002809D5FFE74649086840221043086085
:100370000020C04306900BE00199039840180390B9
:1003800001990498401A0490A0E700200690FFE726
:10039000069807B07047C04680B582B001900199B9
:1003A0000A1D2220002300F003F802B080BD0000E7
:1003B00088B0069005910492039305980290FFE798
:1003C00002980499884252D2FFE70698594908607A
:1003D0000298594908600698212805D1FFE703983B
:1003E000006826490860FFE7544901200860BFF310
:1003F0006F8F4E480068C0080090FFE74F480068C4
:1004000050B1FFE70098401E009020B9FFE70020A0
:10041000C04307902EE0F1E719480068019001A859
:1004200000784006002807D5FFE7019814490860C6
:100430000020C04307901DE0069828B9FFE70F4849
:10044000006803990860FFE70698222806D1FFE7B5
:10045000029840F600014018029003E00298001D47
:100460000290FFE7FFE70398001D0390A8E7002034
:100470000790FFE7079808B07047C04608C00040E3
:1004800000C0004083B0019028480068C008009078
:1004900027490020086027492E2008600198264936
:1004A0000860264901200860FFE72448006868B119
:1004B000FFE70098411E0091002806DCFFE71C4979
:1004C0000020C0430860029003E0EEE700200290A5
:1004D000FFE7029803B0704783B0019013480068AB
:1004E000C008009012490020086012492E200860C0
:1004F000019811490860114901200860FFE70F4881
:10050000006868B1FFE70098411E0091002806DCF2
:10051000FFE707490020C0430860029003E0EEE7D0
:1005200000200290FFE7029803B070470C00002003
:10053000280000200CC0004004C0004010C0004053
:1005400080B58CB00B900AA80170BA4908910B993C
:1005500003910078059003980068069008990020A0
:100560004860039808300390059808380590089A69
:10057000083203200005924900F05EF90698A4288D
:1005800005D1FFE7039800688E490860FFE70698E9
:1005900040B1FFE70698FF2804D0FFE706988A4994
:1005A0000860FFE70698A62804D1FFE708993220E3
:1005B000087232E00698B12806D1FFE701208007D3
:1005C000006808998860E4E00698AB2807D1FFE747
:1005D0000020FFF781FF00F005FBFFE7FEE706982C
:1005E000AE280CD1FFE77749012008607748006802
:1005F00008998860764800680899C860C9E006983C
:10060000A32806D1FFE7714801680020FFF758FED4
:10061000FFE7FFE7FFE7FFE7FFE70698A02804D022
:10062000FFE70698C32834D1FFE70698C32811D105
:10063000FFE767480068684908606C48006838B19F
:10064000FFE76348006869490968FFF739FE00E081
:100650009FE00CE0039801685F48016003994A68D5
:100660005E490A6000680968FFF72AFEFFE7039801
:1006700041685A4801600399083103910599083986
:100680000591554909685A4A11600068594908603E
:1006900049E00698A12806D1FFE703980899083198
:1006A00000F00AFA75E00698FF283AD1FFE74949B9
:1006B0000B6849480268D21A02600B68474A116801
:1006C000C918116000684649084009900998000D52
:1006D000032801D3FFE75CE009983F4902910968CC
:1006E000404A019200F0A8F80998FFF755FE019AD8
:1006F00002990998096800F00BFA029800683A49D3
:10070000084034490A6840F60001891A884207D334
:10071000FFE7099840F600014018FFF73DFEFFE7AC
:1007200037E0FFE7FFE728480068A02805D0FFE78B
:1007300025480068C3282BD1FFE7284800680599A1
:10074000884204D2FFE7254800680590FFE7059A34
:1007500022490868801A08601F48009000680599BF
:100760004118039A00F0D4F903980599FFF767FD43
:100770000098006805994118039A00F05DF8009907
:10078000059A086880180860059812490860FFE714
:10079000FFE70B980AA90978FFF774FD07A90880FD
:1007A00007980899088007490868401C086008688D
:1007B000089A50600868401C086000200CB080BD9A
:1007C000100030000400002010000020AC000020C9
:1007D000B00000201400002018000020200000209D
:1007E00000F80F00B8000020FF070000B400002050
:1007F0001C000020240000207047000081B0002071
:100800000090FFE700983F2812D8FFE7FFE78E48E7
:1008100000680002002801D5FFE7F8E700990548C5
:10082000405C8A490860FFE70098401C0090E9E7B7
:1008300001B070472C00002080B584B00390029175
:1008400001920399029A019B0020FFF7B1FD04B0C9
:1008500080BD704782B035490868042210430860A3
:10086000334800680090FFE732480068C00600285F
:100870000AD4FFE70098401E009020B9FFE700204F
:10088000C04301904EE0EFE72B4908680722104370
:1008900008602A492A480860254800680090FFE758
:1008A00024480068400700280AD4FFE70098401E4B
:1008B000009020B9FFE70020C043019032E0EFE74D
:1008C00020490868012210430E23984308601A4902
:1008D0000868022318430523984308601A491B48F7
:1008E000086013481A49016000681A49B0FBF1F02A
:1008F000194908601949086812041043086018492A
:100900000868032212061043086016490868FF228F
:100910001204904333225204801808600020C04320
:100920000190FFE7019802B07047C0460002004006
:100930000C00002050020040100200404002004025
:100940000E04080020020040080000200020A1073B
:100950000090D00340420F00000000200802004039
:10096000140200403C00004081B00C480090FFE7BA
:100970000B495920086016200860882008600098FC
:10098000401E009008B9FFE705E0FFE70448006853
:100990000028EDD0FFE701B07047C046001BB7004C
:1009A0000001004001480249086070470000100043
:1009B00008ED00E084B023480068039003A80078A5
:1009C0001121084224D0FFE7FFE71F4801680020FB
:1009D0004904002902900DD4FFE7D3480178012093
:1009E000002200924029019001DB009801900198BB
:1009F0000290FFE70298C00748B1FFE7134800687C
:100A0000C94B1A78511C1970C9498854DDE7FFE7B2
:100A1000C5480078402807D1FFE7C4490120087085
:100A2000C149002008700AE003A80078C006002829
:100A300004D5FFE7BC4900200870FFE7FFE704B0DA
:100A40007047C0461C0007401800074000000740E0
:100A500080B582B00F49002008600F49032008606C
:100A60000E490F4808600F490F4808600F49086891
:100A700040221043BF2290430860242001900221AD
:100A800000F06AF8019800F051F809490948086037
:100A900002B080BD300007400C000740080007404E
:100AA00030000300240007406600003020000740AB
:100AB000040007401108000080B584B00390029143
:100AC0008F49086810221043086003200105009137
:100AD00022200E4A01920023FFF76AFC0099019A36
:100AE000039B2120FFF764FC029840B1FFE7029BC3
:100AF000032001050020054AFFF75AFCFFE7804963
:100B0000086810229043086004B080BD10003000D7
:100B100080B584B00390029101920399029A019BDF
:100B20002120FFF745FC04B080BD000081B000909B
:100B3000009800280BD4FFE700991F200A460240C6
:100B40000120904049098900024A8850FFE701B01E
:100B50007047C04600E100E070B582B0019000919E
:100B60000198002814D4FFE701980321CB431840D3
:100B7000164A805801998C07E50EFF24AC40A0432B
:100B8000009CA401E4B2AC4020431940885018E016
:100B900001980F24204008380321CB4318400A4A0B
:100BA000805801998D07EE0EFF25B540A843009DA2
:100BB000AD01EDB2B54028432140083919408850B5
:100BC000FFE702B070BDC0461CED00E000E400E0AD
:100BD000BFF34F8F084909480860BFF34F8FFFE705
:100BE00000BFFDE7BFF34F8F034904480860BFF320
:100BF0004F8FFFE700BFFDE70CED00E00400FA05B2
:100C000080B582B000200190FFF7AEFEFFF722FE14
:100C1000FFF71EFF3949086804221043086038496D
:100C2000086801221043086007F3F6F035490860B0
:100C3000354802683548026000680968884208D271
:100C4000FFE73048006831490968401A30490860B8
:100C500003E02F4900200860FFE72E4801682E4876
:100C600048432E4908602E49002008602D49086835
:100C7000052210430860FFE72B480078032805DCB5
:100C8000FFE72A480078012818D1FFE728480278B2
:100C900041780902891882781204C0780006801809
:100CA000401800900098AE2801D1FFE70EE01F49E0
:100CB000002008701C490870FFE7FFE7194800682A
:100CC000C003002801D5FFE711E0D5E7FFE717488B
:100CD000007801280AD1FFE7144900200870144861
:100CE0004021FFF72DFCFFF789FDFFE7EFE700202C
:100CF000FFF7C8FBFFF76CFFFFE7FEE704020040C9
:100D000000C00040AC00002028F00240B0000020ED
:100D1000B400002000000020E093040014E000E094
:100D200018E000E010E000E0B9080020B80800205A
:100D30006C00002002E008C8121F08C1002AFAD186
:100D400070477047002001E001C1121F002AFBD14B
:100D500070470000740D100000000020100000001B
:100D6000340D1000840D100010000020B0100000A1
:100D7000440D10003000000001000000006CDC0297
:040D8000006CDC0225
:04000005001001EDF9
:00000001FF
